{
  "_format": "hh-sol-artifact-1",
  "contractName": "HuntMapNFT",
  "sourceName": "contracts/HuntMapNFT.sol",
  "abi": [
    {
      "inputs": [
        {
          "internalType": "address",
          "name": "_treasureHuntManagerAddress",
          "type": "address"
        }
      ],
      "stateMutability": "nonpayable",
      "type": "constructor"
    },
    {
      "inputs": [
        {
          "internalType": "address",
          "name": "sender",
          "type": "address"
        },
        {
          "internalType": "uint256",
          "name": "tokenId",
          "type": "uint256"
        },
        {
          "internalType": "address",
          "name": "owner",
          "type": "address"
        }
      ],
      "name": "ERC721IncorrectOwner",
      "type": "error"
    },
    {
      "inputs": [
        {
          "internalType": "address",
          "name": "operator",
          "type": "address"
        },
        {
          "internalType": "uint256",
          "name": "tokenId",
          "type": "uint256"
        }
      ],
      "name": "ERC721InsufficientApproval",
      "type": "error"
    },
    {
      "inputs": [
        {
          "internalType": "address",
          "name": "approver",
          "type": "address"
        }
      ],
      "name": "ERC721InvalidApprover",
      "type": "error"
    },
    {
      "inputs": [
        {
          "internalType": "address",
          "name": "operator",
          "type": "address"
        }
      ],
      "name": "ERC721InvalidOperator",
      "type": "error"
    },
    {
      "inputs": [
        {
          "internalType": "address",
          "name": "owner",
          "type": "address"
        }
      ],
      "name": "ERC721InvalidOwner",
      "type": "error"
    },
    {
      "inputs": [
        {
          "internalType": "address",
          "name": "receiver",
          "type": "address"
        }
      ],
      "name": "ERC721InvalidReceiver",
      "type": "error"
    },
    {
      "inputs": [
        {
          "internalType": "address",
          "name": "sender",
          "type": "address"
        }
      ],
      "name": "ERC721InvalidSender",
      "type": "error"
    },
    {
      "inputs": [
        {
          "internalType": "uint256",
          "name": "tokenId",
          "type": "uint256"
        }
      ],
      "name": "ERC721NonexistentToken",
      "type": "error"
    },
    {
      "anonymous": false,
      "inputs": [
        {
          "indexed": true,
          "internalType": "address",
          "name": "owner",
          "type": "address"
        },
        {
          "indexed": true,
          "internalType": "address",
          "name": "approved",
          "type": "address"
        },
        {
          "indexed": true,
          "internalType": "uint256",
          "name": "tokenId",
          "type": "uint256"
        }
      ],
      "name": "Approval",
      "type": "event"
    },
    {
      "anonymous": false,
      "inputs": [
        {
          "indexed": true,
          "internalType": "address",
          "name": "owner",
          "type": "address"
        },
        {
          "indexed": true,
          "internalType": "address",
          "name": "operator",
          "type": "address"
        },
        {
          "indexed": false,
          "internalType": "bool",
          "name": "approved",
          "type": "bool"
        }
      ],
      "name": "ApprovalForAll",
      "type": "event"
    },
    {
      "anonymous": false,
      "inputs": [
        {
          "indexed": false,
          "internalType": "uint256",
          "name": "_fromTokenId",
          "type": "uint256"
        },
        {
          "indexed": false,
          "internalType": "uint256",
          "name": "_toTokenId",
          "type": "uint256"
        }
      ],
      "name": "BatchMetadataUpdate",
      "type": "event"
    },
    {
      "anonymous": false,
      "inputs": [
        {
          "indexed": false,
          "internalType": "uint256",
          "name": "_tokenId",
          "type": "uint256"
        }
      ],
      "name": "MetadataUpdate",
      "type": "event"
    },
    {
      "anonymous": false,
      "inputs": [
        {
          "indexed": true,
          "internalType": "address",
          "name": "from",
          "type": "address"
        },
        {
          "indexed": true,
          "internalType": "address",
          "name": "to",
          "type": "address"
        },
        {
          "indexed": true,
          "internalType": "uint256",
          "name": "tokenId",
          "type": "uint256"
        }
      ],
      "name": "Transfer",
      "type": "event"
    },
    {
      "inputs": [
        {
          "internalType": "address",
          "name": "to",
          "type": "address"
        },
        {
          "internalType": "uint256",
          "name": "tokenId",
          "type": "uint256"
        }
      ],
      "name": "approve",
      "outputs": [],
      "stateMutability": "nonpayable",
      "type": "function"
    },
    {
      "inputs": [
        {
          "internalType": "address",
          "name": "owner",
          "type": "address"
        }
      ],
      "name": "balanceOf",
      "outputs": [
        {
          "internalType": "uint256",
          "name": "",
          "type": "uint256"
        }
      ],
      "stateMutability": "view",
      "type": "function"
    },
    {
      "inputs": [
        {
          "internalType": "uint256",
          "name": "tokenId",
          "type": "uint256"
        }
      ],
      "name": "getApproved",
      "outputs": [
        {
          "internalType": "address",
          "name": "",
          "type": "address"
        }
      ],
      "stateMutability": "view",
      "type": "function"
    },
    {
      "inputs": [
        {
          "internalType": "uint256",
          "name": "",
          "type": "uint256"
        },
        {
          "internalType": "address",
          "name": "",
          "type": "address"
        }
      ],
      "name": "hasMinted",
      "outputs": [
        {
          "internalType": "bool",
          "name": "",
          "type": "bool"
        }
      ],
      "stateMutability": "view",
      "type": "function"
    },
    {
      "inputs": [
        {
          "internalType": "address",
          "name": "owner",
          "type": "address"
        },
        {
          "internalType": "address",
          "name": "operator",
          "type": "address"
        }
      ],
      "name": "isApprovedForAll",
      "outputs": [
        {
          "internalType": "bool",
          "name": "",
          "type": "bool"
        }
      ],
      "stateMutability": "view",
      "type": "function"
    },
    {
      "inputs": [
        {
          "internalType": "address",
          "name": "_to",
          "type": "address"
        },
        {
          "internalType": "uint256",
          "name": "_huntId",
          "type": "uint256"
        },
        {
          "internalType": "string",
          "name": "_tokenURI",
          "type": "string"
        }
      ],
      "name": "mint",
      "outputs": [],
      "stateMutability": "nonpayable",
      "type": "function"
    },
    {
      "inputs": [],
      "name": "name",
      "outputs": [
        {
          "internalType": "string",
          "name": "",
          "type": "string"
        }
      ],
      "stateMutability": "view",
      "type": "function"
    },
    {
      "inputs": [
        {
          "internalType": "uint256",
          "name": "tokenId",
          "type": "uint256"
        }
      ],
      "name": "ownerOf",
      "outputs": [
        {
          "internalType": "address",
          "name": "",
          "type": "address"
        }
      ],
      "stateMutability": "view",
      "type": "function"
    },
    {
      "inputs": [
        {
          "internalType": "address",
          "name": "from",
          "type": "address"
        },
        {
          "internalType": "address",
          "name": "to",
          "type": "address"
        },
        {
          "internalType": "uint256",
          "name": "tokenId",
          "type": "uint256"
        }
      ],
      "name": "safeTransferFrom",
      "outputs": [],
      "stateMutability": "nonpayable",
      "type": "function"
    },
    {
      "inputs": [
        {
          "internalType": "address",
          "name": "from",
          "type": "address"
        },
        {
          "internalType": "address",
          "name": "to",
          "type": "address"
        },
        {
          "internalType": "uint256",
          "name": "tokenId",
          "type": "uint256"
        },
        {
          "internalType": "bytes",
          "name": "data",
          "type": "bytes"
        }
      ],
      "name": "safeTransferFrom",
      "outputs": [],
      "stateMutability": "nonpayable",
      "type": "function"
    },
    {
      "inputs": [
        {
          "internalType": "address",
          "name": "operator",
          "type": "address"
        },
        {
          "internalType": "bool",
          "name": "approved",
          "type": "bool"
        }
      ],
      "name": "setApprovalForAll",
      "outputs": [],
      "stateMutability": "nonpayable",
      "type": "function"
    },
    {
      "inputs": [
        {
          "internalType": "bytes4",
          "name": "interfaceId",
          "type": "bytes4"
        }
      ],
      "name": "supportsInterface",
      "outputs": [
        {
          "internalType": "bool",
          "name": "",
          "type": "bool"
        }
      ],
      "stateMutability": "view",
      "type": "function"
    },
    {
      "inputs": [],
      "name": "symbol",
      "outputs": [
        {
          "internalType": "string",
          "name": "",
          "type": "string"
        }
      ],
      "stateMutability": "view",
      "type": "function"
    },
    {
      "inputs": [
        {
          "internalType": "uint256",
          "name": "tokenId",
          "type": "uint256"
        }
      ],
      "name": "tokenURI",
      "outputs": [
        {
          "internalType": "string",
          "name": "",
          "type": "string"
        }
      ],
      "stateMutability": "view",
      "type": "function"
    },
    {
      "inputs": [
        {
          "internalType": "address",
          "name": "from",
          "type": "address"
        },
        {
          "internalType": "address",
          "name": "to",
          "type": "address"
        },
        {
          "internalType": "uint256",
          "name": "tokenId",
          "type": "uint256"
        }
      ],
      "name": "transferFrom",
      "outputs": [],
      "stateMutability": "nonpayable",
      "type": "function"
    },
    {
      "inputs": [],
      "name": "treasureHuntManager",
      "outputs": [
        {
          "internalType": "contract ITreasureHuntManager",
          "name": "",
          "type": "address"
        }
      ],
      "stateMutability": "view",
      "type": "function"
    }
  ],
  "bytecode": "0x60a0604052346103a4576116166020813803918261001c816103a9565b9384928339810103126103a457516001600160a01b038116908190036103a45761004660406103a9565b90600c82526b121d5b9d0813585c0813919560a21b602083015261006a60406103a9565b6007815266048554e544d41560cc1b602082015282519091906001600160401b0381116102af57600054600181811c9116801561039a575b602082101461028f57601f8111610336575b506020601f82116001146102d057819293946000926102c5575b50508160011b916000199060031b1c1916176000555b81516001600160401b0381116102af57600154600181811c911680156102a5575b602082101461028f57601f811161022a575b50602092601f82116001146101c557928192936000926101ba575b50508160011b916000199060031b1c1916176001555b801561017557608052600160075560405161124790816103cf823960805181818161019501526107fd0152f35b60405162461bcd60e51b815260206004820152601760248201527f496e76616c6964206d616e6167657220616464726573730000000000000000006044820152606490fd5b015190503880610132565b601f198216936001600052806000209160005b86811061021257508360019596106101f9575b505050811b01600155610148565b015160001960f88460031b161c191690553880806101eb565b919260206001819286850151815501940192016101d8565b60016000527fb10e2d527612073b26eecdfd717e6a320cf44b4afac2b0732d9fcbe2b7fa0cf6601f830160051c81019160208410610285575b601f0160051c01905b8181106102795750610117565b6000815560010161026c565b9091508190610263565b634e487b7160e01b600052602260045260246000fd5b90607f1690610105565b634e487b7160e01b600052604160045260246000fd5b0151905038806100ce565b601f1982169060008052806000209160005b81811061031e57509583600195969710610305575b505050811b016000556100e4565b015160001960f88460031b161c191690553880806102f7565b9192602060018192868b0151815501940192016102e2565b600080527f290decd9548b62a8d60345a988386fc84ba6bc95484008f6362f93160ef3e563601f830160051c81019160208410610390575b601f0160051c01905b81811061038457506100b4565b60008155600101610377565b909150819061036e565b90607f16906100a2565b600080fd5b6040519190601f01601f191682016001600160401b038111838210176102af5760405256fe608080604052600436101561001357600080fd5b60003560e01c90816301ffc9a714610c87575080630378073314610c3a57806306fdde0314610b95578063081812fc14610b57578063095ea7b314610a6857806323b872dd14610a5157806342842e0e14610a215780636352211e146109f157806370a082311461099b57806395d89b41146108cd578063a22cb4651461082c578063a5042b36146107e7578063b88d4fde14610779578063c87b56dd14610742578063d3fc98641461012f5763e985e9c5146100cf57600080fd5b3461012a57604036600319011261012a576100e8610d22565b6100f0610d0c565b9060018060a01b0316600052600560205260406000209060018060a01b0316600052602052602060ff604060002054166040519015158152f35b600080fd5b3461012a57606036600319011261012a57610148610d22565b6024359060443567ffffffffffffffff811161012a573660238201121561012a5761017d903690602481600401359101610def565b60405163518feddf60e11b81526004810184905290927f00000000000000000000000000000000000000000000000000000000000000006001600160a01b031691602081602481865afa9081156106da57600091610723575b506106e65760405163758d9b8960e01b815281600482015260208160448160018060a01b038816968760248301525afa9081156106da576000916106ab575b50156106665780600052600860205260406000208260005260205260ff604060002054166106215760005260086020526040600020816000526020526040600020600160ff1982541617905560075490602092604051906102768583610db1565b60008252821561060b5760008481526002865260018060a01b036040822054168585827fddf252ad1be2c89b69c2b068fc378daa952ba7f163c4a11628f55a4df523b3ef81151595866105d7575b83815260038c5260408082208054600101905585825260028d52812080546001600160a01b0319168517905580a4506105c1573b61049c575b505080600052600682526040600020835167ffffffffffffffff8111610486576103278254610e26565b601f8111610440575b508394601f82116001146103ba577ff8e1a15aba9398e019f0b49df1a4fde98ee17ae345cb5f6b5e2c27f5033e8ce795600091836103af575b50508160011b916000199060031b1c19161790555b604051908152a1600754600019811461039957600101600755005b634e487b7160e01b600052601160045260246000fd5b015190508680610369565b601f1982169583600052856000209160005b8881106104295750908392916001947ff8e1a15aba9398e019f0b49df1a4fde98ee17ae345cb5f6b5e2c27f5033e8ce79910610410575b505050811b01905561037e565b015160001960f88460031b161c19169055868080610403565b9192876001819286850151815501940192016103cc565b8260005284600020601f830160051c81019186841061047c575b601f0160051c01905b8181106104705750610330565b60008155600101610463565b909150819061045a565b634e487b7160e01b600052604160045260246000fd5b836104da916040969493965180938192630a85bd0160e11b835233600484015260006024840152866044840152608060648401526084830190610d38565b03816000895af1809160009161057c575b5090610545575050503d60001461053e573d61050681610dd3565b906105146040519283610db1565b81523d60008383013e5b8051918261053b5783633250574960e11b60005260045260246000fd5b01fd5b606061051e565b919390916001600160e01b03191663757a42ff60e11b01610568575083806102fd565b633250574960e11b60005260045260246000fd5b8581813d83116105ba575b6105918183610db1565b810103126105b65751906001600160e01b0319821682036105b35750866104eb565b80fd5b5080fd5b503d610587565b6339e3563760e11b600052600060045260246000fd5b600085815260046020526040902080546001600160a01b031916905582815260038c526040812080546000190190556102c4565b633250574960e11b600052600060045260246000fd5b60405162461bcd60e51b815260206004820152601c60248201527f416c7265616479206d696e74656420666f7220746869732068756e74000000006044820152606490fd5b60405162461bcd60e51b815260206004820152601e60248201527f526563697069656e74206973206e6f742061207061727469636970616e7400006044820152606490fd5b6106cd915060203d6020116106d3575b6106c58183610db1565b8101906110c2565b85610215565b503d6106bb565b6040513d6000823e3d90fd5b60405162461bcd60e51b8152602060048201526015602482015274121d5b9d081b5d5cdd08189948199a5b9a5cda1959605a1b6044820152606490fd5b61073c915060203d6020116106d3576106c58183610db1565b856101d6565b3461012a57602036600319011261012a57610775610761600435610ff6565b604051918291602083526020830190610d38565b0390f35b3461012a57608036600319011261012a57610792610d22565b61079a610d0c565b906044356064359267ffffffffffffffff841161012a573660238501121561012a576107d36107e5943690602481600401359101610def565b926107df838383610e60565b33611111565b005b3461012a57600036600319011261012a576040517f00000000000000000000000000000000000000000000000000000000000000006001600160a01b03168152602090f35b3461012a57604036600319011261012a57610845610d22565b6024359081151580920361012a576001600160a01b03169081156108b857336000526005602052604060002082600052602052604060002060ff1981541660ff83161790556040519081527f17307eab39ab6107e8899845ad3d59bd9653f200f220920489ca2b5937696c3160203392a3005b50630b61174360e31b60005260045260246000fd5b3461012a57600036600319011261012a5760405160006001546108ef81610e26565b80845290600181169081156109775750600114610917575b6107758361076181850382610db1565b91905060016000527fb10e2d527612073b26eecdfd717e6a320cf44b4afac2b0732d9fcbe2b7fa0cf6916000905b80821061095d57509091508101602001610761610907565b919260018160209254838588010152019101909291610945565b60ff191660208086019190915291151560051b840190910191506107619050610907565b3461012a57602036600319011261012a576001600160a01b036109bc610d22565b1680156109db5760005260036020526020604060002054604051908152f35b6322718ad960e21b600052600060045260246000fd5b3461012a57602036600319011261012a576020610a0f6004356110da565b6040516001600160a01b039091168152f35b3461012a576107e5610a3236610d77565b9060405192610a42602085610db1565b600084526107df838383610e60565b3461012a576107e5610a6236610d77565b91610e60565b3461012a57604036600319011261012a57610a81610d22565b602435610a8d816110da565b33151580610b44575b80610b16575b610b015781906001600160a01b0384811691167f8c5be1e5ebec7d5bd14f71427d1e84f3dd0314c0f7b2291e5b200ac8c7c3b925600080a4600090815260046020526040902080546001600160a01b0319166001600160a01b03909216919091179055005b63a9fbf51f60e01b6000523360045260246000fd5b506001600160a01b038116600090815260056020908152604080832033845290915290205460ff1615610a9c565b506001600160a01b038116331415610a96565b3461012a57602036600319011261012a57600435610b74816110da565b506000526004602052602060018060a01b0360406000205416604051908152f35b3461012a57600036600319011261012a5760405160008054610bb681610e26565b80845290600181169081156109775750600114610bdd576107758361076181850382610db1565b60008080527f290decd9548b62a8d60345a988386fc84ba6bc95484008f6362f93160ef3e563939250905b808210610c2057509091508101602001610761610907565b919260018160209254838588010152019101909291610c08565b3461012a57604036600319011261012a57610c53610d0c565b600435600052600860205260406000209060018060a01b0316600052602052602060ff604060002054166040519015158152f35b3461012a57602036600319011261012a576004359063ffffffff60e01b821680920361012a57602091632483248360e11b8114908115610cc9575b5015158152f35b6380ac58cd60e01b811491508115610cfb575b8115610cea575b5083610cc2565b6301ffc9a760e01b14905083610ce3565b635b5e139f60e01b81149150610cdc565b602435906001600160a01b038216820361012a57565b600435906001600160a01b038216820361012a57565b919082518082526020808301940160005b828110610d67575050600081602094950152601f8019910116010190565b8181015186820152602001610d49565b606090600319011261012a576004356001600160a01b038116810361012a57906024356001600160a01b038116810361012a579060443590565b90601f8019910116810190811067ffffffffffffffff82111761048657604052565b67ffffffffffffffff811161048657601f01601f191660200190565b929192610dfb82610dd3565b91610e096040519384610db1565b82948184528183011161012a578281602093846000960137010152565b90600182811c92168015610e56575b6020831014610e4057565b634e487b7160e01b600052602260045260246000fd5b91607f1691610e35565b6001600160a01b039091169190821561060b576000828152600260205260408120546001600160a01b0316938391859033151580610f5e575b507fddf252ad1be2c89b69c2b068fc378daa952ba7f163c4a11628f55a4df523b3ef9082610f29575b83815260036020526040812060018154019055848152600260205260408120846bffffffffffffffffffffffff60a01b82541617905580a46001600160a01b0316808303610f0f57505050565b6364283d7b60e01b60005260045260245260445260646000fd5b600085815260046020526040902080546001600160a01b03191690558281526003602052604081208054600019019055610ec2565b915091925080610fa7575b15610f78579084849238610e99565b839085610f9157602491637e27328960e01b8252600452fd5b60449163177e802f60e01b825233600452602452fd5b503385148015610fd5575b80610f695750838152600460205260408120546001600160a01b03163314610f69565b5084815260056020908152604080832033845290915281205460ff16610fb2565b610fff816110da565b50600052600660205260406000206040519081600082549261102084610e26565b80845293600181169081156110a05750600114611059575b5061104592500382610db1565b6000604051611055602082610db1565b5290565b90506000929192526020600020906000915b8183106110845750509060206110459282010138611038565b602091935080600191548385880101520191019091839261106b565b90506020925061104594915060ff191682840152151560051b82010138611038565b9081602091031261012a5751801515810361012a5790565b6000818152600260205260409020546001600160a01b03169081156110fd575090565b637e27328960e01b60005260045260246000fd5b823b61111f575b5050505050565b604051630a85bd0160e11b81526001600160a01b03918216600482015291811660248301526044820193909352608060648201529116916020908290819061116b906084830190610d38565b03816000865af180916000916111f7575b50906111d557503d156111ce573d61119381610dd3565b906111a16040519283610db1565b81523d6000602083013e5b805190816111c95782633250574960e11b60005260045260246000fd5b602001fd5b60606111ac565b6001600160e01b03191663757a42ff60e11b0161056857503880808080611118565b6020813d602011611232575b8161121060209383610db1565b810103126105b65751906001600160e01b0319821682036105b357503861117c565b3d915061120356fea164736f6c634300081c000a",
  "linkReferences": {},
  "deployedLinkReferences": {}
}