{
  "_format": "hh-sol-artifact-1",
  "contractName": "TreasureHuntManager",
  "sourceName": "contracts/TreasureHuntManager.sol",
  "abi": [
    {
      "inputs": [],
      "stateMutability": "nonpayable",
      "type": "constructor"
    },
    {
      "anonymous": false,
      "inputs": [
        {
          "indexed": true,
          "internalType": "uint256",
          "name": "huntId",
          "type": "uint256"
        },
        {
          "indexed": true,
          "internalType": "address",
          "name": "creator",
          "type": "address"
        },
        {
          "indexed": false,
          "internalType": "uint8",
          "name": "treasureType",
          "type": "uint8"
        },
        {
          "indexed": false,
          "internalType": "bytes32",
          "name": "treasureLocationHash",
          "type": "bytes32"
        },
        {
          "indexed": false,
          "internalType": "uint8",
          "name": "initialX",
          "type": "uint8"
        },
        {
          "indexed": false,
          "internalType": "uint8",
          "name": "initialY",
          "type": "uint8"
        }
      ],
      "name": "HuntCreated",
      "type": "event"
    },
    {
      "anonymous": false,
      "inputs": [
        {
          "indexed": true,
          "internalType": "uint256",
          "name": "huntId",
          "type": "uint256"
        },
        {
          "indexed": false,
          "internalType": "bool",
          "name": "treasureFoundByReveal",
          "type": "bool"
        },
        {
          "indexed": false,
          "internalType": "uint8",
          "name": "revealedTreasureX",
          "type": "uint8"
        },
        {
          "indexed": false,
          "internalType": "uint8",
          "name": "revealedTreasureY",
          "type": "uint8"
        }
      ],
      "name": "HuntEnded",
      "type": "event"
    },
    {
      "anonymous": false,
      "inputs": [
        {
          "indexed": true,
          "internalType": "uint256",
          "name": "huntId",
          "type": "uint256"
        },
        {
          "indexed": true,
          "internalType": "address",
          "name": "player",
          "type": "address"
        },
        {
          "indexed": false,
          "internalType": "uint8",
          "name": "newX",
          "type": "uint8"
        },
        {
          "indexed": false,
          "internalType": "uint8",
          "name": "newY",
          "type": "uint8"
        },
        {
          "indexed": false,
          "internalType": "uint8",
          "name": "moveNumber",
          "type": "uint8"
        }
      ],
      "name": "MoveMade",
      "type": "event"
    },
    {
      "anonymous": false,
      "inputs": [
        {
          "indexed": true,
          "internalType": "uint256",
          "name": "huntId",
          "type": "uint256"
        },
        {
          "indexed": true,
          "internalType": "address",
          "name": "revealer",
          "type": "address"
        },
        {
          "indexed": false,
          "internalType": "uint8",
          "name": "treasureX",
          "type": "uint8"
        },
        {
          "indexed": false,
          "internalType": "uint8",
          "name": "treasureY",
          "type": "uint8"
        }
      ],
      "name": "TreasureRevealed",
      "type": "event"
    },
    {
      "inputs": [],
      "name": "admin",
      "outputs": [
        {
          "internalType": "address",
          "name": "",
          "type": "address"
        }
      ],
      "stateMutability": "view",
      "type": "function"
    },
    {
      "inputs": [
        {
          "internalType": "uint256",
          "name": "_huntId",
          "type": "uint256"
        },
        {
          "internalType": "uint8",
          "name": "_treasureType",
          "type": "uint8"
        },
        {
          "internalType": "uint8",
          "name": "_maxMoves",
          "type": "uint8"
        },
        {
          "internalType": "bytes32",
          "name": "_treasureLocationHash",
          "type": "bytes32"
        }
      ],
      "name": "createHunt",
      "outputs": [],
      "stateMutability": "nonpayable",
      "type": "function"
    },
    {
      "inputs": [
        {
          "internalType": "uint256",
          "name": "_huntId",
          "type": "uint256"
        }
      ],
      "name": "getHuntDetails",
      "outputs": [
        {
          "internalType": "uint256",
          "name": "id",
          "type": "uint256"
        },
        {
          "internalType": "address",
          "name": "creator",
          "type": "address"
        },
        {
          "internalType": "uint8",
          "name": "treasureType",
          "type": "uint8"
        },
        {
          "internalType": "bytes32",
          "name": "treasureLocationHash",
          "type": "bytes32"
        },
        {
          "internalType": "uint8",
          "name": "currentX",
          "type": "uint8"
        },
        {
          "internalType": "uint8",
          "name": "currentY",
          "type": "uint8"
        },
        {
          "internalType": "uint8",
          "name": "movesMade",
          "type": "uint8"
        },
        {
          "internalType": "uint8",
          "name": "maxMoves",
          "type": "uint8"
        },
        {
          "internalType": "bool",
          "name": "isActive",
          "type": "bool"
        },
        {
          "internalType": "bool",
          "name": "treasureRevealed",
          "type": "bool"
        },
        {
          "internalType": "bool",
          "name": "treasureFoundAtReveal",
          "type": "bool"
        },
        {
          "internalType": "address",
          "name": "lastMover",
          "type": "address"
        },
        {
          "internalType": "uint256",
          "name": "participantsCount",
          "type": "uint256"
        },
        {
          "internalType": "uint8",
          "name": "revealedTreasureX",
          "type": "uint8"
        },
        {
          "internalType": "uint8",
          "name": "revealedTreasureY",
          "type": "uint8"
        }
      ],
      "stateMutability": "view",
      "type": "function"
    },
    {
      "inputs": [
        {
          "internalType": "uint256",
          "name": "huntId",
          "type": "uint256"
        }
      ],
      "name": "getStoredTreasureLocationHash",
      "outputs": [
        {
          "internalType": "bytes32",
          "name": "",
          "type": "bytes32"
        }
      ],
      "stateMutability": "view",
      "type": "function"
    },
    {
      "inputs": [
        {
          "internalType": "uint256",
          "name": "",
          "type": "uint256"
        }
      ],
      "name": "hunts",
      "outputs": [
        {
          "internalType": "uint256",
          "name": "id",
          "type": "uint256"
        },
        {
          "internalType": "address",
          "name": "creator",
          "type": "address"
        },
        {
          "internalType": "uint8",
          "name": "treasureType",
          "type": "uint8"
        },
        {
          "internalType": "bytes32",
          "name": "treasureLocationHash",
          "type": "bytes32"
        },
        {
          "internalType": "uint8",
          "name": "currentX",
          "type": "uint8"
        },
        {
          "internalType": "uint8",
          "name": "currentY",
          "type": "uint8"
        },
        {
          "internalType": "uint8",
          "name": "movesMade",
          "type": "uint8"
        },
        {
          "internalType": "uint8",
          "name": "maxMoves",
          "type": "uint8"
        },
        {
          "internalType": "bool",
          "name": "isActive",
          "type": "bool"
        },
        {
          "internalType": "bool",
          "name": "treasureRevealed",
          "type": "bool"
        },
        {
          "internalType": "bool",
          "name": "treasureFoundAtReveal",
          "type": "bool"
        },
        {
          "internalType": "address",
          "name": "lastMover",
          "type": "address"
        },
        {
          "internalType": "uint256",
          "name": "participantsCount",
          "type": "uint256"
        },
        {
          "internalType": "uint8",
          "name": "revealedTreasureX",
          "type": "uint8"
        },
        {
          "internalType": "uint8",
          "name": "revealedTreasureY",
          "type": "uint8"
        }
      ],
      "stateMutability": "view",
      "type": "function"
    },
    {
      "inputs": [
        {
          "internalType": "uint256",
          "name": "_huntId",
          "type": "uint256"
        }
      ],
      "name": "isHuntActive",
      "outputs": [
        {
          "internalType": "bool",
          "name": "",
          "type": "bool"
        }
      ],
      "stateMutability": "view",
      "type": "function"
    },
    {
      "inputs": [
        {
          "internalType": "uint256",
          "name": "huntId",
          "type": "uint256"
        }
      ],
      "name": "isHuntRevealed",
      "outputs": [
        {
          "internalType": "bool",
          "name": "",
          "type": "bool"
        }
      ],
      "stateMutability": "view",
      "type": "function"
    },
    {
      "inputs": [
        {
          "internalType": "uint256",
          "name": "_huntId",
          "type": "uint256"
        },
        {
          "internalType": "address",
          "name": "_player",
          "type": "address"
        }
      ],
      "name": "isParticipant",
      "outputs": [
        {
          "internalType": "bool",
          "name": "",
          "type": "bool"
        }
      ],
      "stateMutability": "view",
      "type": "function"
    },
    {
      "inputs": [
        {
          "internalType": "uint256",
          "name": "_huntId",
          "type": "uint256"
        },
        {
          "internalType": "uint8",
          "name": "_targetX",
          "type": "uint8"
        },
        {
          "internalType": "uint8",
          "name": "_targetY",
          "type": "uint8"
        }
      ],
      "name": "makeMove",
      "outputs": [],
      "stateMutability": "nonpayable",
      "type": "function"
    },
    {
      "inputs": [
        {
          "internalType": "uint256",
          "name": "_huntId",
          "type": "uint256"
        },
        {
          "internalType": "uint8",
          "name": "_treasureX",
          "type": "uint8"
        },
        {
          "internalType": "uint8",
          "name": "_treasureY",
          "type": "uint8"
        },
        {
          "internalType": "bytes32",
          "name": "_salt",
          "type": "bytes32"
        }
      ],
      "name": "revealTreasure",
      "outputs": [],
      "stateMutability": "nonpayable",
      "type": "function"
    },
    {
      "inputs": [
        {
          "internalType": "uint256",
          "name": "",
          "type": "uint256"
        }
      ],
      "name": "treasureLocationHashes",
      "outputs": [
        {
          "internalType": "bytes32",
          "name": "",
          "type": "bytes32"
        }
      ],
      "stateMutability": "view",
      "type": "function"
    }
  ],
  "bytecode": "0x60808060405234602757600080546001600160a01b03191633179055610d3d908161002d8239f35b600080fdfe60c080604052600436101561001357600080fd5b60003560e01c90816315f3598b14610ad557508063324a9b1a14610a9e578063366db7bd14610915578063638cf9e0146101f2578063758d9b89146108ba578063a2365b34146105ed578063a31fdbbe146105b7578063aa57f09c1461021e578063c531a0f2146101f2578063d0150764146100c65763f851a4401461009857600080fd5b346100c15760003660031901126100c1576000546040516001600160a01b039091168152602090f35b600080fd5b346100c15760203660031901126100c157600435600090815260016020818152604092839020805492810154600282015460038301546005840154600690940154875160a0818152608089815298825280516001600160a01b03808816918a0191909152815160ff97831c88169b019a909a5280516060019490945283518584169801979097528251600883811c8616918501919091528351601084901c861660c0909101528351601884901c861660e09091015283519683901c85161515610100909701969096528251602883901c85161515610120909101528251603083901c8516151561014090910152825160389290921c909716610160909101528051610180019290925281518186166101a09091015290519390911c166101c0909201919091526101e090f35b346100c15760203660031901126100c15760043560005260026020526020604060002054604051908152f35b346100c15760603660031901126100c15760043560243560ff8116908181036100c1576044359060ff8216918281036100c157846000526001602052604060002090600382019283549060ff8260201c161561057d5733603883901c6001600160a01b03161461052e57600a871080610524575b156104e05760ff8260181c1660ff8360101c1610156104a35760ff80809281851690818b1160001461049457906102c891610c32565b935b60081c16848189111561048657906102e191610c32565b1691160160ff811161042c5760ff600191160361044257825461ff0019861661ffff199091161760089190911b61ff001617825560ff825460101c1660ff811461042c57825466ffffffff010000600160d81b03191660019190910160101b62ff0000161733603881901b670100000000000000600160d81b0316919091178355600090815260048201602081905260409091205490919060ff16156103f6575b5050549160ff8360101c16916040519182526020820152816040820152837f15df732bf30a0a3eb76d718825e3682221d98b34c634d29aaf9e3595b3edd68c60603393a360ff8260181c161490816103e7575b506103dc57005b6103e590610cbe565b005b60ff915060281c1615826103d5565b3360009081526020929092526040909120805460ff191660011790556005018054600019811461042c5760010190558480610382565b634e487b7160e01b600052601160045260246000fd5b606460405162461bcd60e51b815260206004820152602060248201527f4d6f7665206d75737420626520746f20616e2061646a6163656e742063656c6c6044820152fd5b61048f91610c32565b6102e1565b61049d91610c32565b936102ca565b60405162461bcd60e51b815260206004820152601560248201527413585e1a5b5d5b481b5bdd995cc81c995858da1959605a1b6044820152606490fd5b606460405162461bcd60e51b815260206004820152602060248201527f54617267657420636f6f7264696e61746573206f7574206f6620626f756e64736044820152fd5b50600a8610610292565b60405162461bcd60e51b815260206004820152602160248201527f43616e6e6f74206d616b652074776f20636f6e7365637574697665206d6f76656044820152607360f81b6064820152608490fd5b60405162461bcd60e51b815260206004820152601260248201527148756e74206973206e6f742061637469766560701b6044820152606490fd5b346100c15760203660031901126100c1576004356000526001602052602060ff600360406000200154821c166040519015158152f35b346100c1576105fb36610c00565b929182600052600160205260406000209182541561087f576003830192835460ff8160281c1661083a5733600090815260048301602052604090205460ff168015610824575b8015610810575b156107c1576040519360ff6020860191169485825260ff851698896040830152606082015260608152608081019181831067ffffffffffffffff8411176107ab57826040528151902060028501540361076057505065ff0000000000191665010000000000178455600601805461ff0019841661ffff199091161760089290921b61ff0016919091179055604051818152846020820152837fc3ad3cd8adac761b672a8a0dcc32246353511ab8004203983803bff9e83a62a460403393a381549360ff8560201c169182610753575b5081610743575b5061072557005b66010000000000006103e59366ff0000000000001916179055610c46565b905060ff8460081c16148461071e565b60ff861614915085610717565b90601d60fa1b60e460849362461bcd60e51b8452602085820152602160a48201527f496e76616c6964207472656173757265206c6f636174696f6e206f722073616c60c48201520152fd5b634e487b7160e01b600052604160045260246000fd5b60405162461bcd60e51b815260206004820152602160248201527f4e6f7420617574686f72697a656420746f2072657665616c20747265617375726044820152606560f81b6064820152608490fd5b506000546001600160a01b03163314610648565b5060018201546001600160a01b03163314610641565b60405162461bcd60e51b815260206004820152601960248201527f547265617375726520616c72656164792072657665616c6564000000000000006044820152606490fd5b60405162461bcd60e51b8152602060048201526013602482015272121d5b9d08191bd95cc81b9bdd08195e1a5cdd606a1b6044820152606490fd5b346100c15760403660031901126100c1576024356001600160a01b03811681036100c157600435600052600160205260046040600020019060018060a01b0316600052602052602060ff604060002054166040519015158152f35b346100c15761092336610c00565b836000949394526001602052604060002054610a605760ff821615610a1c5760008381526001602081815260409283902086815591820180546001600160a81b0319163360ff60a01b1981169190911760a08a901b60ff60a01b161790915560038301805460029490940186905564010000040066ffffff00ffff001963ff0000ff1990951660189890981b63ff000000169790971760041793841687179055835160ff9889168152918201949094528187169281019290925265ffff00ffff00191690921760081c90931660608201527fdcd497dfd8bdb9e873c30e1a35f7695d2236c35a6af9f297076d4a8d18d80c1190608090a3005b606460405162461bcd60e51b815260206004820152602060248201527f4d6178206d6f766573206d7573742062652067726561746572207468616e20306044820152fd5b60405162461bcd60e51b815260206004820152601660248201527548756e7420494420616c72656164792065786973747360501b6044820152606490fd5b346100c15760203660031901126100c1576004356000526001602052602060ff60036040600020015460281c166040519015158152f35b346100c15760203660031901126100c15760043560009081526001602081815260409283902080549281015460028201546003830154600584015460069094015460a08981526080888152978a5280516001600160a01b0380871691890191909152815160ff96831c87169a019990995280516060019390935282518483169701969096528151600882811c8516918401919091528251601083901c851660c0909101528251601883901c851660e09091015282519582901c84161515610100909601959095528151602882901c84161515610120909101528151603082901c8416151561014090910152815160389190911c909616610160909601959095528451610180019190915283518184166101a090910152925191901c9091166101c0909101526101e090f35b60809060031901126100c1576004359060243560ff811681036100c1579060443560ff811681036100c1579060643590565b9060ff8091169116039060ff821161042c57565b806000526001602052604060002060038101805460ff8160201c1615610cb8577fc07f1a5c4ec7b6a61d8a39d33bf8c9ca54142f95c572bcedc68b82fbec03664b9260609260069264ff0000000019169055015460ff6040519160018352818116602084015260081c166040820152a2565b50505050565b806000526001602052604060002060038101805460ff8160201c1615610cb8577fc07f1a5c4ec7b6a61d8a39d33bf8c9ca54142f95c572bcedc68b82fbec03664b9260609260069264ff0000000019169055015460ff6040519160008352818116602084015260081c166040820152a256fea164736f6c634300081c000a",
  "linkReferences": {},
  "deployedLinkReferences": {}
}